:100000004DED00F053ED00F06BED00F075ED00F0FC
:10001000C0680401C39786ED00F086ED00F0C38749
:1000200086ED00F086ED00F008EF00F0050E026EA0
:10003000000E046E3BEF00F00401000EFB6F000E9B
:10004000FA6F004442EC00F0C06E036E86EC00F0E4
:1000500004B2FFEFFFF0012E30EF00F036EF00F0BA
:10006000002A04A21CEF00F0FFEFFFF0022E3BEF8E
:1000700000F0FFEFFFF0C3870A0E016E000E006E66
:100080001CEF00F0F9267E0CBD0CDB0CE70CFF0C1E
:10009000E70CDB0CBD0C7E0CFF0C0001600EAD6F9D
:1000A000020EB16F12000401D36BC387286BCB978C
:1000B0000401CE6B006BC68701870401D06BC06B57
:1000C000106BC86B0401CF6B086BC76B096B089989
:1000D000C789098912000201030E3E6F02010C0E4E
:1000E0003F6F02012A0E406F1200D68A030163910E
:1000F00068916C81D690AF909F80D692B490A48086
:10010000D694B890A880D68ED68C1200FA0E066EC1
:10011000F90E056E0000052E8AEF00F0062E88EF1E
:0401200000F01200D9
:020000040001F9
:10FFD40000EF00F0B8A0F1EFFFF0B8900468100053
:10FFE400AFA0F8EFFFF0AF9016EF00F0B4A0FFEF72
:0CFFF400FFF0B490C06A86ED00F0100031
:020000040030CA
:10000000EC0D27C79FFFFFFFFFFFFFFFFFFFFFFF75
:10001000FFFFFFFFFFFFFFFFFFFFFFFFFFFFFFFFF0
:03002000FFFFFFE0
:00000001FF
