:10000000C7ED01F0C0EC01F0CDEC01F009EC00F01F
:100010000000CEA71CEF01F0C990C190C992C19217
:10002000C994C194C996C196C998C198C99AC19AF0
:10003000C99CC18CC99EC18ECEA71CEF01F0D1ED29
:1000400001F0D1ED01F0D1ED01F0D1ED01F0C99059
:10005000C180C992C192C994C194C996C186C998F8
:10006000C188C99AC18AC99CC18CC99EC18ECEA7BC
:100070001CEF01F0D1ED01F0D1ED01F0D1ED01F077
:10008000D1ED01F0C990C190C992C192C994C184C7
:10009000C996C196C998C198C99AC18AC99CC19C80
:1000A000C99EC18ECEA71CEF01F0D1ED01F0D1EDBC
:1000B00001F0D1ED01F0D1ED01F0C990C190C992EC
:1000C000C192C994C194C996C196C998C188C99A68
:1000D000C18AC99CC19CC99EC18ECEA71CEF01F0EC
:1000E000D1ED01F0D1ED01F0D1ED01F0D1ED01F054
:1000F000C990C180C992C192C994C194C996C18660
:10010000C998C188C99AC19AC99CC19CC99EC18E0F
:10011000CEA71CEF01F0D1ED01F0D1ED01F0D1ED52
:1001200001F0D1ED01F0C990C190C992C182C9948A
:10013000C194C996C196C998C188C99AC19AC99CE7
:10014000C19CC99EC18ECEA71CEF01F0D1ED01F07C
:10015000D1ED01F0D1ED01F0D1ED01F0C990C190E8
:10016000C992C182C994C194C996C196C998C198CF
:10017000C99AC19AC99CC19CC99EC18ECEA71CEFC9
:1001800001F0D1ED01F0D1ED01F0D1ED01F0D1EDB3
:1001900001F0C990C190C992C192C994C194C99605
:1001A000C186C998C188C99AC18AC99CC18CC99E97
:1001B000C18ECEA71CEF01F0D1ED01F0D1ED01F021
:1001C000D1ED01F0D1ED01F0C990C190C992C19279
:1001D000C994C194C996C196C998C198C99AC19A3F
:1001E000C99CC19CC99EC18ECEA71CEF01F0D1ED68
:1001F00001F0D1ED01F0D1ED01F0D1ED01F0C990A8
:10020000C190C992C192C994C194C996C186C99836
:10021000C188C99AC19AC99CC19CC99EC18ECEA7EA
:100220001CEF01F0D1ED01F0D1ED01F0D1ED01F0C5
:10023000D1ED01F009EF00F0C990C190C992C192CF
:10024000C994C194C996C186C998C198C99AC19ADE
:10025000C99CC19CC99EC18ECEB70CEF00F0D1EDF8
:1002600001F0D1ED01F0D1ED01F0D1ED01F0C99037
:10027000C180C992C182C994C194C996C196C998D6
:10028000C198C99AC19AC99CC19CC99EC18ECEB75A
:100290000CEF00F0D1ED01F0D1ED01F0D1ED01F066
:1002A000D1ED01F0C990C190C992C182C994C184B5
:1002B000C996C196C998C198C99AC19AC99CC18C5E
:1002C000C99EC18ECEB70CEF00F0D1ED01F0D1ED9B
:1002D00001F0D1ED01F0D1ED01F0C990C180C992DA
:1002E000C192C994C194C996C196C998C198C99A36
:1002F000C18AC99CC19CC99EC18ECEB70CEF00F0CB
:10030000D1ED01F0D1ED01F0D1ED01F0D1ED01F031
:10031000C990C190C992C182C984C184C996C1964D
:10032000C998C198C99AC19AC99CC19CC99EC18EDD
:10033000CEB70CEF00F0D1ED01F0D1ED01F0D1ED31
:1003400001F0D1ED01F0C990C190C992C182C99468
:10035000C184C996C186C998C198C99AC19AC99CD5
:10036000C19CC99EC18FCEB70CEF00F0D1ED01F05A
:10037000D1ED01F0D1ED01F0D1ED01F009EF00F088
:100380000401CE6B006BC687BE8701871200000197
:10039000600EAD6F020EB16F12000401D16A186ACF
:1003A0001200FA0E016EF90E006E0000002ED5EF5D
:0A03B00001F0012ED3EF01F012005E
:020000040001F9
:04FFFC0000EF00F022
:020000040030CA
:10000000EC0D27C79FFFFFFFFFFFFFFFFFFFFFFF75
:10001000FFFFFFFFFFFFFFFFFFFFFFFFFFFFFFFFF0
:03002000FFFFFFE0
:00000001FF
